:020000040800F2
:10000000000002207D280008BD210008BF21000853
:10001000C1210008C3210008C5210008000000001C
:10002000000000000000000000000000C7210008E0
:10003000C921000800000000CB210008CD210008E4
:10004000CD280008CD280008CD280008CD280008BC
:10005000CD280008CD280008CD280008CD280008AC
:10006000CD280008CD280008CD280008CD2800089C
:10007000CD280008CD280008CD280008CD2800088C
:10008000CD280008CD280008CD280008CD2800087C
:10009000CD280008CD280008CD280008CD2800086C
:1000A000CD280008CD280008CD280008CD2800085C
:1000B000CD280008CD280008CD280008CD2800084C
:1000C000CD280008CD280008CD280008CD2800083C
:1000D000CD280008CD280008CD280008CD2800082C
:1000E000CD280008CD280008CD280008CD2800081C
:1000F000CD280008CD280008CD280008CD2800080C
:10010000CD280008CD280008CD280008CD280008FB
:10011000CD280008CD280008C11F0008CD28000800
:10012000CD280008CD280008CD280008CD280008DB
:10013000CD2800080000000000000000CD280008C5
:10014000CD280008CD280008CD280008CD280008BB
:10015000CD280008CD280008CD280008CD280008AB
:10016000CD280008CD280008CD280008CD2800089B
:10017000CD280008CD280008CD2800080000000088
:1001800000000000CD280008000000000000000072
:10019000CD2800080000000000000000CD28000865
:1001A000000000000000000000000000CD28000852
:1001B000CD280008CD280008CD280008CD2800084B
:0401C000CD2800083E
:1001D00010B5054C237833B9044B13B10448AFF381
:1001E00000800123237010BD780000200000000073
:1001F0004031000808B5034B1BB103490348AFF376
:10020000008008BD000000007C0000204031000894
:1002100053B94AB9002908BF00281CBF4FF0FF316D
:100220004FF0FF3000F072B9ADF1080C6DE904CE6B
:1002300000F006F8DDF804E0DDE9022304B07047C1
:100240002DE9F047089E04468846002B4BD18A4290
:10025000154667D9B2FA82F24AB1C2F1200701FA13
:1002600002F320FA07F7954047EA030894404FEA63
:10027000154E230CB8FBFEF71FFA85FC0EFB178802
:1002800043EA084307FB0CF1994209D9EB1807F13F
:10029000FF3080F01B81994240F21881023F2B44CD
:1002A0005B1AA4B2B3FBFEF00EFB103344EA034426
:1002B00000FB0CFCA44509D92C1900F1FF3380F098
:1002C0000781A44540F2048102382C4440EA0740EB
:1002D000A4EB0C0400271EB1D4400023C6E9004360
:1002E0003946BDE8F0878B4209D9002E00F0EB803B
:1002F0000027C6E9000138463946BDE8F087B3FA61
:1003000083F7002F47D18B4202D3824200F2FA805A
:10031000841A61EB030301209846002EE0D0C6E961
:100320000048DDE702B9FFDEB2FA82F2002A40F0AF
:100330008F80491B4FEA154E1FFA85F80127B1FB44
:10034000FEFC230C0EFB1C1143EA014308FB0CF1DD
:10035000994207D9EB180CF1FF3002D2994200F212
:10036000CD808446591AA3B2B1FBFEF00EFB1014E7
:1003700043EA044408FB00F8A04507D92C1900F112
:10038000FF3302D2A04500F2B6801846A4EB080461
:1003900040EA0C409FE7C7F1200CBB4022FA0CFE5C
:1003A0004EEA030E01FA07F420FA0CF521FA0CF3D9
:1003B0004FEA1E482543B3FBF8F92C0C08FB193310
:1003C0001FFA8EFA44EA034309FB0AF49C4202FA3C
:1003D00007F200FA07F10BD91EEB030309F1FF3016
:1003E00080F087809C4240F28480A9F10209734426
:1003F0001B1BADB2B3FBF8F008FB103345EA034416
:1004000000FB0AFAA24508D91EEB040400F1FF33F1
:100410006BD2A24569D90238744440EA0940A0FB76
:100420000289A4EB0A044C45C2464B4654D351D032
:10043000002E69D0B1EB0A0564EB030404FA0CFC4E
:10044000FD40FC404CEA0505C6E90054002747E79B
:10045000C2F1200320FA03F7954001FA02F021FAD5
:1004600003F34FEA154E3843010CB3FBFEF71FFAB6
:1004700085F80EFB173341EA034107FB08F38B4273
:1004800004FA02F407D9691807F1FF3C2FD28B4216
:100490002DD9023F2944CB1A81B2B3FBFEF00EFBEB
:1004A000103341EA034100FB08F38B4207D9691876
:1004B00000F1FF3C17D28B4215D902382944C91AE2
:1004C00040EA07473BE73746304609E70746E7E695
:1004D0001846FBE64145ABD2B8EB020A69EB0E02C7
:1004E00001381346A4E76046E9E7184695E76746F2
:1004F000D1E781467CE702382C4447E7ACF1020C97
:100500002B442FE7384608E73746E9E6704700BF37
:1005100001F0FF01102A2BDB10F0070F08D010F8B4
:10052000013B013A8B422DD010F0070F42B3F6D1B8
:10053000F0B441EA012141EA014122F007047FF0D1
:1005400000070023F0E80256083C85EA010586EA28
:10055000010685FA47F5A3FA87F586FA47F6A5FA64
:1005600087F68EB9EED1F0BC01F0FF0102F0070270
:1005700032B110F8013B013A83EA010313B1F8D11B
:100580000020704701387047002D06BF35460338FC
:10059000073815F0010F07D1013015F4807F02BF35
:1005A000013015F4C03F0130F0BC0138704700BF86
:1005B00010B504460E4B18784FF47A73B3FBF0F382
:1005C0000C4A1068B0FBF3F000F088F868B90F2C03
:1005D00001D901200AE0002221464FF0FF3000F04F
:1005E00049F8034B5C60002000E0012010BD00BF13
:1005F000000000200800002008B50B4B1A6842F4E8
:1006000000721A601A6842F480621A601A6842F432
:1006100080721A60032000F01BF80020FFF7C8FF6B
:1006200001F0D0FC002008BD003C0240034A1168E4
:10063000034B1B780B441360704700BFB8000020C9
:1006400000000020014B1868704700BFB800002070
:10065000074AD36823F4E0631B041B0C000200F478
:10066000E060184340F0BF6040F40030D060704755
:1006700000ED00E030B4174BDB68C3F30223C3F195
:100680000704042C28BF04241D1D062D18D9033B84
:100690004FF0FF3505FA04F421EA0401994005FA08
:1006A00003F322EA0303194300280BDB0901C9B253
:1006B00000F1604000F5614080F8001330BC7047E5
:1006C0000023E5E700F00F000901C9B2024B1954FD
:1006D000F4E700BF00ED00E014ED00E00138B0F1F8
:1006E000807F0AD2064B5860064AF02182F8231018
:1006F0000020986007221A6070470120704700BFF1
:1007000010E000E000ED00E000230F2B00F2D180AC
:10071000F0B482B039E0062200E00022B2403A4351
:100720000234644E46F82420634A1468EA4302EA1D
:1007300004064F6817F4803F01D045EA04065E4C7A
:100740002660646802EA04064F6817F4003F01D08F
:1007500045EA0406584C6660A46802EA04064F683D
:1007600017F4801F01D045EA0406534CA660E468E4
:1007700022404E6816F4001F01D045EA04024E4C98
:10078000E26001330F2B00F2918001229A400C6845
:1007900004EA0205AA42F4D14C68022C01D0122CC2
:1007A00010D1DE08083650F826C003F00704A70071
:1007B0000F24BC402CEA040C0C69BC4044EA0C0435
:1007C00040F8264004685F000326BE40F64306EA70
:1007D000040C4C6804F00304BC4044EA0C040460BC
:1007E0004C6804F1FF3CBCF1010F03D9112C01D07E
:1007F000122C10D1846806EA040CCC68BC4044EA90
:100800000C048460446824EA02024C68C4F30014B7
:100810009C4014434460C26816408A68BA40324320
:10082000C2604A6812F0805FABD000220192234A76
:10083000546C44F480445464526C02F4804201923B
:10084000019A9C08A61C1B4A52F8267003F003026A
:1008500096000F22B24027EA0207194A90423FF45D
:100860005CAF02F58062904216D002F58062904241
:1008700014D002F58062904212D002F5806290425C
:1008800010D002F5806290420ED002F58062904254
:100890003FF441AF072241E701223FE702223DE753
:1008A00003223BE7042239E7052237E702B0F0BC18
:1008B0007047704700380140003C0140003802405A
:1008C0000000024012B909048161704781617047DC
:1008D000002800F09D8070B504464F4B1B6803F064
:1008E0000F038B4209D2CBB24B4A1370136803F04B
:1008F0000F038B4201D0012070BD236813F0020F5B
:1009000017D013F0040F04D0444A936843F4E05323
:100910009360236813F0080F04D0404A936843F4AF
:10092000604393603D4A936823F0F003A06803435B
:1009300093600D46236813F0010F32D06368012BDA
:1009400021D09A1E012A25D9344A126812F0020FCA
:1009500060D032498A6822F0030213438B60FFF7AC
:1009600071FE06462D4B9B6803F00C036268B3EBE7
:10097000820F16D0FFF766FE801B41F28833984243
:10098000F0D90320B8E7254A126812F4003FE0D1FD
:100990000120B1E7214A126812F0007FD9D101206D
:1009A000AAE71D4B1B6803F00F03AB4209D9EAB25B
:1009B000194B1A701B6803F00F03AB4201D00120E2
:1009C0009AE7236813F0040F06D0144A936823F4BF
:1009D000E053E1680B439360236813F0080F07D0DE
:1009E0000E4A936823F46043216943EAC10393608C
:1009F00000F040F8094B9B68C3F30313084AD35C2B
:100A0000D840084B18600020FFF7D2FD002073E7A4
:100A10000120704701206FE7003C0240003802408F
:100A20005831000808000020014B1868704700BFCB
:100A30000800002008B5FFF7F7FF044B9B68C3F3DD
:100A40008223034AD35CD84008BD00BF003802406F
:100A50006831000808B5FFF7E7FF044B9B68C3F354
:100A60004233034AD35CD84008BD00BF003802407F
:100A7000683100082DE9F04B5C4B9B6803F00C03D8
:100A8000082B07D00C2B5BD0042B00F0AD8058480E
:100A9000BDE8F08B554B5A6802F03F025B6813F4D7
:100AA000800F2AD0514B5B68C3F388131E46002782
:100AB0005C010025E41A65EB0705A90141EA946190
:100AC000A001001B61EB0501CB0043EA5073C40099
:100AD000A01943EB07014B0243EAD05344022046DE
:100AE00019460023FFF794FB404B5B68C3F30143B7
:100AF00001335B00B0FBF3F0CAE73C4B5B68C3F328
:100B000088131E4600275C010025E41A65EB0705E3
:100B1000A90141EA9461A001001B61EB0501CB0032
:100B200043EA5073C400A01943EB07018B0243EA68
:100B300090538402204619460023FFF769FBD3E750
:100B40002A4B5A6802F03F025B6813F4800F28D0EA
:100B5000264B5B68C3F388131E4600275C01002503
:100B6000E41A65EB0705A90141EA9461A001001BA5
:100B700061EB0501CB0043EA5073C400A01943EBBD
:100B800007014B0243EAD053440220461946002392
:100B9000FFF73EFB154B5B68C3F30273B0FBF3F04A
:100BA00076E7124B5B68C3F388131E4600275C018F
:100BB0000025E41A65EB0705A90141EA9461A0014B
:100BC000001B61EB0501CB0043EA5073C400A01980
:100BD00043EB07018B0243EA9053840220461946F7
:100BE0000023FFF715FBD5E7024851E70038024024
:100BF0000024F40000127A0070B582B00446036845
:100C000013F0010F41D0A64B9B6803F00C03042B9B
:100C100032D0A34B9B6803F00C03082B27D0A04BCA
:100C20009B6803F00C030C2B59D06368B3F5803F2D
:100C30005BD0B3F5A02F5ED0994B1A6822F48032B6
:100C40001A601A6822F480221A606368002B5CD054
:100C5000FFF7F8FC0546924B1B6813F4003F14D1D4
:100C6000FFF7F0FC401B6428F5D903209DE18C4B75
:100C70005B6813F4800FD2D0894B1B6813F4003FDC
:100C800003D06368002B00F08D81236813F0020FFE
:100C900067D0834B9B6813F00C0F4AD0804B9B6846
:100CA00003F00C03082B3FD07D4B9B6803F00C0333
:100CB0000C2B48D0E368002B74D07A4B01221A60C9
:100CC000FFF7C0FC0546764B1B6813F0020F60D19E
:100CD000FFF7B8FC401B0228F5D9032065E1704BF3
:100CE0005B6813F4800FA0D0C6E76D4A136843F425
:100CF00080331360A9E76A4B1A6842F480221A60B5
:100D00001A6842F480321A609FE7FFF79BFC0546A1
:100D1000634B1B6813F4003FB7D0FFF793FC401BF5
:100D20006428F5D9032040E15D4B5B6813F4800F24
:100D3000BAD15B4B1B6813F0020F0AD0E368012B9A
:100D400007D0012031E1564B5B6813F4800FB1D11D
:100D5000EFE7534A136823F0F803216943EAC1031C
:100D60001360236813F0080F40D0636963B34E4BE0
:100D700001221A60FFF766FC0546494B5B6F13F0D2
:100D8000020F33D1FFF75EFC401B0228F5D9032088
:100D90000BE1434A136823F0F803216943EAC103D6
:100DA0001360DEE73F4B00221A60FFF74BFC05465D
:100DB0003B4B1B6813F0020FD3D0FFF743FC401BE3
:100DC0000228F5D90320F0E0374B00221A60FFF724
:100DD00039FC0546324B5B6F13F0020F06D0FFF76C
:100DE00031FC401B0228F5D90320DEE0236813F014
:100DF000040F79D02A4B1B6C13F0805F33D1002392
:100E00000193274B1A6C42F080521A641B6C03F05A
:100E100080530193019B0125244B1B6813F4807FB1
:100E200023D0A368012B34D0052B41D01C4B1A6F63
:100E300022F001021A671A6F22F004021A67A368EF
:100E4000002B3FD0FFF7FEFB0646154B1B6F13F040
:100E5000020F48D1FFF7F6FB801B41F2883398421E
:100E6000F3D90320A1E00025D6E7104A136843F424
:100E700080731360FFF7E6FB06460C4B1B6813F408
:100E8000807FCED1FFF7DEFB801B0228F5D903203F
:100E90008BE0034A136F43F001031367CFE700BFF2
:100EA0000038024000004742800E47420070004078
:100EB000404B1A6F42F004021A671A6F42F00102A7
:100EC0001A67BCE7FFF7BEFB06463A4B1B6F13F0F1
:100ED000020F08D0FFF7B6FB801B41F2883398421F
:100EE000F3D9032061E0E5B9A369002B5CD0314A56
:100EF000926802F00C02082A59D0022B17D02E4B10
:100F000000221A60FFF79EFB04462A4B1B6813F071
:100F1000007F45D0FFF796FB001B0228F5D9032080
:100F200043E0244A136C23F080531364DCE7224B24
:100F300000221A60FFF786FB05461E4B1B6813F064
:100F4000007F06D0FFF77EFB401B0228F5D9032067
:100F50002BE0E369226A1343626A43EA8213A26ABE
:100F60005208013A43EA0243E26A43EA0263226B0F
:100F700043EA02730F4A53600F4B01221A60FFF7D6
:100F800061FB04460B4B1B6813F0007F06D1FFF793
:100F900059FB001B0228F5D9032006E0002004E0DD
:100FA000002002E0012000E0002002B070BD01201E
:100FB000FBE700BF0038024060004742F8B5054635
:100FC0000F4616461C462B689B6837EA03030CBF86
:100FD00001230023B34237D0B4F1FF3FF3D0FFF732
:100FE00031FB069BC01AA04201D2002CEBD12A682B
:100FF000536823F0E00353606B68B3F5827F0BD036
:10100000AB6AB3F5005F14D0012385F8513000239B
:1010100085F85030032018E0AB68B3F5004F02D0DC
:10102000B3F5806FECD12A68136823F04003136096
:10103000E6E72A68136823F4005313602A681368EC
:1010400043F400531360DFE70020F8BD30B585B0EE
:10105000164C2468164DA5FB0434640D4FF47A75C4
:1010600005FB04F403944468B4F5827F0BD0039B22
:10107000C3B1039B013B039303689B6813F0800F8C
:10108000F5D100230FE00B46044600920022802198
:10109000FFF794FF034630B1636D43F020036365AF
:1010A000032300E00023184605B030BD08000020EF
:1010B000819F5E1610B582B004464068B0F5827F0D
:1010C00016D06068B0F5827F2ED1A368B3F5806F2B
:1010D0001BD000920B46002280212046FFF76EFFB6
:1010E000034650B3636D43F020036365032324E09C
:1010F000A368B3F5004F02D0B3F5806FE1D120684B
:10110000036823F040030360DBE700920B460022F4
:1011100001212046FFF752FF034670B1636D43F093
:1011200020036365032308E000920B46002201219F
:101130002046FFF743FF034610B9184602B010BD22
:10114000636D43F0200363650323F6E700283BD07B
:1011500010B504460023836290F85130002B2ED046
:10116000022384F851302268136823F0400313608F
:101170006368A2681343E2681343226913436269F8
:101180001343A26902F400721343E2691343226A13
:101190001343A16A22680B431360638B03F00403BB
:1011A000616A22680B4353602268D36923F40063A9
:1011B000D36100206065012384F8513010BD80F8B0
:1011C000503000F01FFFCBE7012070472DE9F041C0
:1011D00082B090F85040012C00F0C3801D461746A5
:1011E00088460446012380F85030FFF72BFA064664
:1011F00094F85130DBB2012B09D00220012384F88E
:101200005130002384F8503002B0BDE8F081B8F1CD
:10121000000F00F09880002F00F09780032384F8DF
:10122000513000236365C4F83080A786E786A36346
:10123000A387E38763642364A368B3F5004F1CD0DE
:1012400023681A6812F0400F03D11A6842F0400276
:101250001A60E368B3F5006F15D063680BB1012F16
:1012600049D1226B236812781A73236B01332363ED
:10127000E38E013B9BB2E3863DE02268136843F4B2
:1012800080431360DCE763680BB1012F15D1226B3B
:1012900023681288DA60236B02332363E38E013BF9
:1012A0009BB2E38609E0FFF7CDF9801BA84202D389
:1012B000B5F1FF3F4BD1002D4BD0E38E9BB2002BFD
:1012C0002CD023689A6812F0020FECD0226B12889F
:1012D000DA60236B02332363E38E013B9BB2E38628
:1012E000EBE7FFF7AFF9801BA84202D3B5F1FF3F50
:1012F00031D1002D31D0E38E9BB27BB123689A6847
:1013000012F0020FEDD0226B12781A73236B0133A7
:101310002363E38E013B9BB2E386ECE7324629462A
:101320002046FFF793FE08B120236365A36833B915
:1013300001932368DA6801929B680193019B636DB6
:101340006BB900205AE7012058E7012056E7032037
:1013500054E7032052E7032050E703204EE7012023
:101360004CE7022050E72DE9F04383B0DDF82880F8
:1013700090F85040012C00F00B811D4617460E4698
:101380000446012380F85030FFF75CF9814694F859
:101390005100C0B26368012815D0B3F5827F0AD02E
:1013A0000223012284F85120002284F8502018469C
:1013B00003B0BDE8F083A368002B40F0DB80042875
:1013C00001D00223EDE7002E00F0D680002F00F0C0
:1013D000D580002D00F0D48094F85130DBB2042B7E
:1013E00002D0052384F8513000236365A763E587A5
:1013F000A5872663E586A5862364636423681A6847
:1014000012F0400F03D11A6842F040021A60E368FC
:10141000B3F5006F10D063680BB1012D0AD1226BB8
:10142000236812781A73236B01332363E38E013B25
:101430009BB2E386012569E063680BB1012D0AD1F7
:10144000226B23681288DA60236B02332363E38EF6
:10145000013B9BB2E38601251BE023689A6812F0EA
:10146000010F0DD0E28F92B252B1DA68A36B1A80ED
:10147000A36B0233A363E38F013B9BB2E387012598
:10148000FFF7E0F8A0EB0900404502D3B8F1FF3FB9
:1014900078D1E38E9BB21BB9E38F9BB2002B52D065
:1014A00023689A6812F0020FD7D0E28E92B2002A17
:1014B000D3D0002DD1D0226B1288DA60236B023397
:1014C0002363E38E013B9BB2E3860025C5E72368D7
:1014D0009A6812F0010F0DD0E28F92B252B1DA6821
:1014E000A36B1A70A36B0133A363E38F013B9BB221
:1014F000E3870125FFF7A6F8A0EB0900404502D3DA
:10150000B8F1FF3F40D1B8F1000F3FD0E38E9BB25E
:1015100013B9E38F9BB2B3B123689A6812F0020F3C
:10152000D5D0E28E92B2002AD1D0002DCFD0226B3E
:1015300012781A73236B01332363E38E013B9BB252
:10154000E3860025C3E74A4641462046FFF77EFD75
:10155000034618B120236365012322E7A268002A0D
:101560007FF41FAF01922268D168019192680192C5
:10157000019A16E7022314E7012312E7012310E77B
:1015800001230EE703230CE703230AE7032308E7FD
:1015900002230CE72DE9F04182B004460F46904645
:1015A0001D464368B3F5827F19D094F85030012B63
:1015B00000F09F80012384F85030FFF743F806467F
:1015C00094F85130DBB2012B15D00220012384F8AE
:1015D0005130002384F8503002B0BDE8F0818368B8
:1015E000002BE2D1042380F85130009513460A46BF
:1015F000FFF7B9FEF0E7002F6DD0B8F1000F6CD007
:10160000042384F8513000236365A763A4F83C8069
:10161000A4F83E802363A386E38623646364A368FF
:10162000B3F5004F0BD023681A6812F0400F03D1B6
:101630001A6842F040021A60E36883B12CE0226825
:10164000136823F480431360EDE7FEF7FBFF801B74
:10165000A84202D3B5F1FF3F41D1002D41D0E38F25
:101660009BB2002B2BD023689A6812F0010FECD0AC
:10167000A26B1B7B1370A36B0133A363E38F013B4E
:101680009BB2E387EBE7FEF7DDFF801BA84202D3A6
:10169000B5F1FF3F27D145B3E38F9BB27BB1236800
:1016A0009A6812F0010FEED0DA68A36B1A80A36B70
:1016B0000233A363E38F013B9BB2E387ECE732463F
:1016C00029462046FFF7F6FC08B120236365636DC9
:1016D0006BB900207AE7012078E7012076E7032044
:1016E00074E7032072E7032070E703206EE7012010
:1016F0006CE7022070E70268D36843F00103D3600F
:101700000268936803F00703062B03D0136843F0C5
:1017100001031360002070470368304A904212D0E2
:10172000B0F1804F0FD0A2F57C4290420BD002F571
:101730008062904207D002F58062904203D002F5A9
:101740007842904203D123F070034A681343234A3E
:1017500090422AD0B0F1804F27D0A2F57C4290422F
:1017600023D002F5806290421FD002F58062904241
:101770001BD002F57842904217D002F57052904289
:1017800013D002F5806290420FD002F58062904241
:101790000BD0A2F59832904207D002F580629042B9
:1017A00003D002F58062904203D123F44073CA68EB
:1017B000134323F080034A69134303608B68C362B9
:1017C0000B688362054B984203D003F5806398420F
:1017D00001D10B690363012343617047000001409D
:1017E000A8B110B5044690F83D305BB1022384F8EF
:1017F0003D30211D2068FFF78FFF012384F83D3025
:10180000002010BD80F83C3000F058FCEEE70120CD
:10181000704790F83C30012B1CD070B4012680F842
:101820003C60022380F83D3002685568936825F0DB
:1018300070050C682C4323F080054B682B435460E3
:101840000268936080F83D60002380F83C301846C1
:1018500070BC7047022070472DE9F84304460268C7
:10186000136923F44053C1680B4313618368026911
:10187000134342691343C2691A430168CB6823F4D6
:10188000164323F00C031343CB600268536923F41F
:10189000407381690B435361C369B3F5004F60D056
:1018A0000368B84A934200F0148102F580629342C3
:1018B00000F00F81FFF7BEF800EB800000EB800026
:1018C0006568AD00B0FBF5F5AF4FA7FB05356D09B9
:1018D0002E01FFF7AFF800EB800000EB8000656899
:1018E000AD00B0FBF5F9FFF7A5F800EB800000EBC9
:1018F00080006568AD00B0FBF5F5A7FB05356D0907
:101900004FF0640808FB15952D013235A7FB05350E
:101910006D0905F0F0053544FFF78CF800EB800009
:1019200000EB80006668B600B0FBF6F6FFF782F8C1
:1019300000EB800000EB800063689B00B0FBF3F0DD
:10194000A7FB0030400908FB10684FEA081808F1AF
:101950003208A7FB0837C7F3431723682F449F605B
:101960000DE10368874A93425BD002F5806293429F
:1019700057D0FFF75FF800EB800000EB8000656850
:101980006D00B0FBF5F5804FA7FB05356D092E0105
:10199000FFF750F800EB800000EB800065686D00F9
:1019A000B0FBF5F9FFF746F800EB800000EB800094
:1019B00065686D00B0FBF5F5A7FB05356D094FF0C7
:1019C000640808FB1595ED003235A7FB05356D0958
:1019D0006D0005F4F8753544FFF72CF800EB800036
:1019E00000EB800066687600B0FBF6F6FFF722F8A1
:1019F00000EB800000EB800063685B00B0FBF3F35A
:101A0000A7FB03235B0908FB13684FEAC80808F12A
:101A10003208A7FB0837C7F3421723682F449F609B
:101A2000ADE0FFF717F800EB800000EB8000656881
:101A30006D00B0FBF5F5544FA7FB05356D092E0180
:101A4000FFF708F800EB800000EB800065686D0090
:101A5000B0FBF5F9FEF7FEFF00EB800000EB800025
:101A600065686D00B0FBF5F5A7FB05356D094FF016
:101A7000640808FB1595ED003235A7FB05356D09A7
:101A80006D0005F4F8753544FEF7E4FF00EB8000C7
:101A900000EB800066687600B0FBF6F6FEF7DAFF32
:101AA00000EB800000EB800063685B00B0FBF3F3A9
:101AB000A7FB03235B0908FB13684FEAC80808F17A
:101AC0003208A7FB0837C7F3421723682F449F60EB
:101AD00055E0FEF7BFFF00EB800000EB800065687B
:101AE000AD00B0FBF5F5284FA7FB05356D092E01BC
:101AF000FEF7B0FF00EB800000EB80006568AD00F2
:101B0000B0FBF5F9FEF7A6FF00EB800000EB8000CC
:101B10006568AD00B0FBF5F5A7FB05356D094FF025
:101B2000640808FB15952D013235A7FB05356D09B5
:101B300005F0F0053544FEF78DFF00EB800000EB6B
:101B400080006668B600B0FBF6F6FEF783FF00EB98
:101B5000800000EB800063689B00B0FBF3F0A7FB04
:101B60000030400908FB10684FEA081808F13208F5
:101B7000A7FB0837C7F3431723682F449F60BDE8CE
:101B8000F88300BF001001401F85EB512DE9F041A3
:101B900005460F4616469846069C2B681B6837EA92
:101BA00003030CBF01230023B3421DD1B4F1FF3F57
:101BB000F3D02CB1FEF746FDA0EB0800A042ECD913
:101BC0002A68D36823F4D073D3602A68536923F05A
:101BD00001035361202385F8393085F83A3000231A
:101BE00085F83830032000E00020BDE8F08158B3CC
:101BF00010B5044690F839300BB3242384F83930FB
:101C00002268D36823F40053D3602046FFF724FEF4
:101C10002268136923F4904313612268536923F007
:101C20002A0353612268D36843F40053D360002031
:101C3000E063202384F8393084F83A3010BD80F80E
:101C4000383000F053FAD8E7012070472DE9F04111
:101C500082B01E4690F83930DBB2202B55D10446B5
:101C60000D469046002955D0002A55D090F83830BE
:101C7000012B53D0012380F838300023C363212384
:101C800080F83930FEF7DEFC0746A4F82480A4F87B
:101C9000268010E000963B46002280212046FFF778
:101CA00075FF00283CD12B882268C3F308035360DA
:101CB0002369C3B90235E38C9BB2B3B1E38C013B1A
:101CC0009BB2E384A368B3F5805FE3D000963B4604
:101CD000002280212046FFF759FF18BB2A7823688D
:101CE0005A600135E7E70135E5E700963B460022FB
:101CF00040212046FFF74AFF0346A8B9202284F876
:101D00003920002284F8382000E00223184602B06F
:101D1000BDE8F0810123F9E70123F7E70223F5E7A6
:101D20000323F3E70323F1E70323EFE7F0B58BB0D9
:101D300000240594069407940894099401942A4B6E
:101D40001A6B42F004021A631A6B02F00402019249
:101D5000019A02941A6B42F080021A631A6B02F025
:101D600080020292029A03941A6B42F001021A63F3
:101D70001A6B02F001020392039A04941A6B42F068
:101D800002021A631B6B03F002030493049B174FB8
:101D9000224620213846FEF795FD154D22464FF488
:101DA00080712846FEF78EFD4FF400530593114BCA
:101DB0000693079405A92846FEF7A6FC2023059361
:101DC000012606960794089405A93846FEF79CFC60
:101DD0004FF48073059306960794089405A9284646
:101DE000FEF792FC0BB0F0BD00380240000002404C
:101DF000000802400000211008B50848084B0360A5
:101E00004FF4E133436000238360C36003610C221D
:101E100042618361C361FFF7EAFE08BDC40100208F
:101E20000044004008B50848084B03604FF4E13314
:101E3000436000238360C36003610C2242618361BD
:101E4000C361FFF7D4FE08BD200100200048004018
:101E500008B50C480C4B03604FF4827343600023B9
:101E60008360C360036143614FF40072826110229A
:101E7000C2610362436283620A23C362FFF766F9A9
:101E800008BD00BFC80000200038004030B583B056
:101E90000025009501950A4C0A4B2360C02363601E
:101EA000A5604FF6FF13E360A5612046FFF798FC9D
:101EB0000095019569462046FFF7ABFC03B030BDA5
:101EC000840100200010004030B595B0342200217C
:101ED00007A800F027FD00240294039404940594BD
:101EE000069400941B4B1A6C42F080521A641B6CCF
:101EF00003F080530093009B0194174A136823F466
:101F0000404343F480431360136803F44043019358
:101F1000019B0225079501230A9310230B930D952E
:101F20000E940F934FF4A8731093042311931295FA
:101F3000139507A8FEF760FE0F2302930395049400
:101F40004FF4805305930694294602A8FEF7C0FC7F
:101F500015B030BD003802400070004008B5124C8A
:101F6000124B2360124B6360124DA560124BE3606D
:101F7000FEF742FBFFF7A8FFFFF7D8FEFFF73CFF95
:101F8000FFF750FFFFF764FFFFF780FF4FF00633C6
:101F90002B606B60204600F061F90848FFF7ABFB4F
:101FA000014800F007FAFBE764010020200100204F
:101FB000C8000020C0000020600100208401002033
:101FC0007047000000B583B0002100910C4B5A6CA3
:101FD00042F480425A645A6C02F480420092009AA1
:101FE00001911A6C42F080521A641B6C03F080530A
:101FF0000193019B0720FEF72BFB03B05DF804FB68
:10200000003802402DE9F04188B000230393049387
:102010000593069307930268254B9A4202D008B0B5
:10202000BDE8F0810024009403F500331A6C42F4FB
:1020300080421A641A6C02F480420092009A019461
:102040001A6B42F004021A631A6B02F00402019246
:10205000019A02941A6B42F002021A631B6B03F09E
:1020600002030293029B022503950495032606961C
:1020700007230793DFF8408003A94046FEF744FB9F
:10208000042303930495059406960527079703A94F
:102090004046FEF739FB4FF48063039304950594A3
:1020A0000696079703A90348FEF72EFBB7E700BF84
:1020B0000038004000040240000802400268094B5A
:1020C0009A4200D0704782B000230193064B1A6CED
:1020D00042F010021A641B6C03F010030193019B81
:1020E00002B07047001000400038024000B58BB0CD
:1020F00000230593069307930893099303682A4ADC
:10210000934205D0294A934227D00BB05DF804FBD7
:1021100000210191264B1A6C42F400321A641A6CA9
:1021200002F400320192019A02911A6B42F001020C
:102130001A631B6B03F001030293029B0C230593AC
:10214000022306930123079303230893072309938C
:1021500005A91848FEF7D8FAD7E700210391144BD8
:102160001A6C42F480221A641A6C02F480220392E0
:10217000039A04911A6B42F004021A631B6B03F07A
:1021800004030493049B4FF44063059302230693D6
:1021900001230793032308930723099305A90648FE
:1021A000FEF7B2FAB1E700BF00440040004800402B
:1021B0000038024000000240000802407047FEE77D
:1021C000FEE7FEE7FEE770477047704708B5FEF789
:1021D0002DFA08BD08B503460B4A126842B10A4AF7
:1021E000106803446A46934206D8074A136008BD44
:1021F000054A06491160F2E700F06AFB0C23036010
:102200004FF0FF30F3E700BF9400002008020020E9
:102210000F49D1F8883043F47003C1F888300D4B72
:102220001A6842F001021A60002098601A6822F0D1
:10223000847222F480321A60074A5A601A6822F4C3
:1022400080221A60D8604FF000638B60704700BF37
:1022500000ED00E0003802401030002470B590B06E
:10226000044640220021684600F05CFB01224FF446
:10227000FC71204600F0AEF9002504224FF4FC71F9
:10228000204600F04FF9064602463449684600F001
:1022900051FB4FF0FF33402269462068FFF7D6FC20
:1022A0000135ADB216F0010F04D0B5F57A7FE4D157
:1022B000002500E0002504226421204600F032F9C8
:1022C000064602462649684600F034FB4FF0FF33CD
:1022D000402269462068FFF7B9FC0135ADB2214BB9
:1022E0009E4202D0B5F57A7FE5D1B5F57A7F21D04F
:1022F000002504227421204600F014F90646024607
:102300001949684600F016FB4FF0FF33402269463A
:102310002068FFF79BFC0135ADB216F0006F02D1CB
:10232000B5F57A7FE5D1B5F57A7F06D10023237420
:1023300010B070BD00232374FAE702234FF49872A3
:102340000121204600F0B4F902234FF49A720021D3
:10235000204600F0ADF901232374E9E7703100084D
:102360008C31000821436587A8310008F0B5A5B07D
:10237000044680252A46002104A800F0D3FAE36829
:102380001A78A1680B8848888E88CF79897903915B
:10239000029701960090064904A800F0CBFA4FF08E
:1023A000FF332A4604A92068FFF750FC25B0F0BD92
:1023B000C0310008F0B5A5B004468022002104A871
:1023C00000F0B0FAFEF73EF90746237C002B00F040
:1023D0008A8001224FF48861204600F047F910F00E
:1023E000010F6DD00023637601224FF498712046CF
:1023F00000F03CF900F00F00A076082863D000231D
:102400002376204600F0ECF9424B1A884EF6602302
:102410009A425BD022B9404B1B68B3F1FF3F5ED0BC
:102420003D4B1B68C3EB431103EB810303EB8303B9
:10243000D9000A4492B2374B1A80A3681A80A36865
:10244000C8225A80A3684FF496729A80A3680A2221
:10245000DA71A36814229A71204600F04DF92046E3
:10246000FFF784FF04224FF41161204600F0FEF8CC
:10247000606102224FF40871204600F0F7F8A08353
:102480004022002104A800F04DFA627E237EA17E46
:10249000A08B0290606901900091204904A800F08F
:1024A00049FA4FF0FF33802204A92068FFF7CEFBE2
:1024B000FEF7C8F807F5FA739842F9D925B0F0BDD0
:1024C0000123637690E7012323769AE7124B1B687A
:1024D000012B9FD1104B4FF0FF311960A0E70E4B3D
:1024E000012119609CE70023109311931293139319
:1024F00004AD0B4E0FCE0FC50FCE0FC596E80F00E3
:1025000085E80F004FF0FF33802204A92068FFF711
:102510009DFBCDE7A00000200C0000202032000829
:1025200060320008F0B593B006460C4617464022CC
:102530000021684600F0F6F900224FF4807122482D
:10254000FEF7C0F903228DF84420C4F307238DF869
:1025500045308DF846404FF4805311A97068FEF75E
:1025600035FE80B94FF480533A4610A97068FFF7E2
:1025700011F8B0B901224FF480711348FEF7A2F9A7
:10258000109813B0F0BD2422002107A800F0CAF96A
:102590006C460E4D0FCD0FC495E8070084E8070088
:1025A000E0E7262200210DF11A0000F0BBF96C468D
:1025B000074D0FCD0FC495E8070003C424F8022B84
:1025C000120C2270D6E700BF0008024090320008CB
:1025D000AC320008F0B593B007460E46144600250D
:1025E000ADF8465040222946684600F09BF9022388
:1025F0008DF84030C6F307238DF841308DF84260E6
:102600008DF84340C4F307238DF84430C4F30743E7
:102610008DF84530C4F307648DF846402A464FF4E0
:1026200080711048FEF74EF94FF48053072210A92D
:102630007868FEF7CBFD38B901224FF48071094864
:10264000FEF740F913B0F0BD2422294607A800F098
:1026500069F96C46044D0FCD0FC495E8070084E876
:102660000700E9E7000802409032000838B5044648
:102670001546002261F30702090A61F30F2265F390
:1026800017426FF03F0363F31F624FF44171FFF78E
:10269000A1FF04224FF441712046FFF743FF0028B9
:1026A000F7DB2A464FF440712046FFF73BFF38BD69
:1026B00070B5044615461E460A464FF44071FFF7B2
:1026C00089FF002265F307022D0A65F30F2266F3E6
:1026D00017426FF07F0363F31F624FF4417120468E
:1026E000FFF778FF04224FF441712046FFF71AFFED
:1026F0000028F7DB70BD000070B598B004462022BA
:10270000002110A800F00EF940220021684600F0D8
:1027100009F94FF080424FF445712046FFF75AFF08
:102720002C4A4FF444712046FFF754FF4FF000420B
:102730004FF445712046FFF74DFF02224FF44571DB
:102740002046FFF7EFFEC0F307200128F5D902234A
:102750008DF8403000228DF8412020238DF8423042
:102760004FF480711C48FEF7ADF84FF480530322FC
:1027700010A96068FEF72AFD78B94FF4805308224B
:10278000A1686068FEF722FDA8B901224FF48071AC
:102790001148FEF797F818B070BD2422002107A851
:1027A00000F0C0F86D460D4E0FCE0FC596E807003D
:1027B00085E80700E1E72422002107A800F0B2F82D
:1027C0006C46064D0FCD0FC495E8070084E807005E
:1027D000DBE700BF0012080000080240903200084A
:1027E00070B588B0044620220021684600F09AF8AF
:1027F0004FF080424FF443712046FFF7EBFE4FF459
:1028000082224FF442712046FFF7E4FE4FF000426F
:102810004FF443712046FFF7DDFE02224FF443716F
:102820002046FFF77FFEC0F307200128F5D10326DD
:102830008DF8006000228DF801208DF802200E4DE9
:102840004FF480712846FEF73DF84FF4805332462E
:1028500069466068FEF7BAFC4FF480530422E168D1
:102860006068FEF797FE01224FF480712846FEF75C
:1028700029F808B070BD00BF00080240DFF834D06E
:10288000002103E00C4B5B58435004310B480C4BC8
:1028900042189A42F6D30B4A02E0002342F8043B66
:1028A000094B9A42F9D3FFF7B3FC00F017F8FFF792
:1028B00055FB7047000002200C3300080000002088
:1028C000740000207800002008020020FEE70000CD
:1028D000014B1868704700BF1000002070B50D4E06
:1028E0000D4CA41BA4100025A54209D10B4E0C4C85
:1028F00000F026FCA41BA4100025A54205D170BD44
:1029000056F8253098470135EEE756F825309847B8
:102910000135F2E7043300080433000804330008EB
:102920000833000802440346934200D1704703F87D
:10293000011BF9E70EB400B59CB01DAB02900690E8
:102940006FF00041094807910491094953F8042B9D
:1029500005910068019302A900F066F8029B00222D
:102960001A701CB05DF804EB03B070471000002033
:102970000802FFFF2DE9F0478E689E4282460C4612
:102980009046994637D88A8912F4906F31D02568DD
:1029900009696F1A6569022305EB450595FBF3F597
:1029A00009F101033B449D4238BF1D46530530D514
:1029B000294600F02BFB064650B90C23CAF800301C
:1029C000A38943F04003A3814FF0FF30BDE8F087B7
:1029D0003A46216900F0A8FAA38923F4906343F0F2
:1029E0008003A381266165613E44ED1B2660A560DE
:1029F0004E464E4500D94E4632464146206800F0CC
:102A00009EFAA3689B1BA36023681E4426600020D7
:102A1000DCE72A4600F054FB06460028E2D1216993
:102A2000504600F0A5FAC8E72DE9F04F1D468B8906
:102A30001F069DB080460C4616460FD50B696BB934
:102A4000402100F0E3FA2060206128B90C23C8F887
:102A500000304FF0FF30C8E040236361002309934A
:102A600020238DF8293030238DF82A3003954FF03C
:102A7000010B37463D4615F8013B0BB1252B3ED1E6
:102A8000B7EB060A0BD05346324621464046FFF7C5
:102A900071FF013000F0A480099B534409933B78F7
:102AA000002B00F09D8000234FF0FF32CDE905237D
:102AB000049307938DF853301A932F46052217F885
:102AC000011B5048FDF724FD049BD0B9D90644BF33
:102AD00020228DF853201A0744BF2B228DF8532053
:102AE0002A782A2A15D0079A2F4600200A25394627
:102AF00011F8013B303B092B4DD9B8B10FE02F46FF
:102B0000B8E7404A801A0BFA00F0184304903D469B
:102B1000D3E7039A111D12680391002A01DB079283
:102B200004E0524243F00203079204933B782E2BB9
:102B30000CD17B782A2B33D1039B1A1D1B6803927F
:102B4000002BB8BF4FF0FF33023705932E4D397875
:102B500003222846FDF7DCFC38B14023401B03FA72
:102B600000F0049B034301370493397827488DF81C
:102B7000281006227E1CFDF7CBFC002838D0244B01
:102B800013BB039B073323F0070308330393099B0D
:102B90004B4409936DE705FB023201200F46A6E77F
:102BA00000230137059319460A25384610F8012BF2
:102BB000303A092A03D9002BC8D00591C6E705FB96
:102BC000012101230746F0E703AB00932246114B96
:102BD00004A94046AFF30080B0F1FF3F8146D6D153
:102BE000A3895B063FF535AF09981DB0BDE8F08FAE
:102BF00003AB00932246074B04A9404600F082F83D
:102C0000EAE700BFC8320008CE320008D23200081E
:102C100000000000752900082DE9F04791461F4685
:102C20008A680B69DDF820809342B8BF1346C9F863
:102C3000003091F8432006460C4612B10133C9F822
:102C400000302368990642BFD9F800300233C9F832
:102C50000030256815F0060507D104F1190AE3686C
:102C6000D9F800209B1AAB4228DC94F84330226844
:102C7000003318BF012392062DD404F143023946D4
:102C80003046C047013020D02368E568D9F80020DD
:102C900003F00603042B08BFAD1AA36822690CBF1A
:102CA00025EAE57500259342C4BF9B1AED184FF045
:102CB00000091A344D451AD1002008E0012352467C
:102CC00039463046C047013003D14FF0FF30BDE8F0
:102CD000F0870135C3E7E1185A1C302081F8430022
:102CE000224494F8451082F843100233C5E70123CB
:102CF000224639463046C0470130E6D009F1010985
:102D0000D8E700002DE9F04301F1430C0C46097EA1
:102D100085B06E291746064698460C9A00F0B38097
:102D200022D8632936D00AD8002900F0B980582962
:102D300000F0838004F1420584F8421032E06429F7
:102D400001D06929F6D120681368050603F1040152
:102D50002AD51B681160002B03DA2D225B4284F810
:102D600043206F480A2239E0732900F09D8008D87B
:102D70006F2920D07029DDD1236843F02003236020
:102D800003E0752917D07829D4D1782384F8453009
:102D9000644855E01368191D1B68116004F1420571
:102DA00084F8423001238CE01B68116010F0400F62
:102DB00018BF1BB2CFE713682568181D10602806DE
:102DC00001D51B6802E06806FBD51B8854486F29B3
:102DD00014BF0A220822002184F843106568A56008
:102DE000002DC0F29580216821F004012160002BA4
:102DF0003DD1002D40F08E806546082A0BD1236816
:102E0000DB0708D5236962689A42DEBF302305F8E4
:102E1000013C05F1FF35ACEB05032361CDF80080E3
:102E20003B4603AA21463046FFF7F6FE01304DD15E
:102E30004FF0FF3005B0BDE8F083394884F8451005
:102E4000136821681D1D1B6815600A060BD5CA078B
:102E500044BF41F0200121601BB9226822F020020A
:102E600022601022B7E74D0648BF9BB2EFE76546E8
:102E7000B3FBF2F102FB1133C35C05F8013D0B46D5
:102E80000029F5D1B9E7136825686169181D10603C
:102E900028061B6801D5196002E06A06FBD5198077
:102EA000002323616546B9E71368191D11601D6889
:102EB000626800212846FDF72BFB08B1401B6060CB
:102EC00063682361002384F84330A7E723692A4617
:102ED00039463046C0470130AAD023689B0713D437
:102EE000E068039B9842B8BF1846A3E701234A460F
:102EF00039463046C04701309AD00135E368039A1D
:102F00009B1AAB42F2DCEBE7002504F11909F5E767
:102F1000002BACD1037884F8423004F142056CE711
:102F2000D9320008EA32000810B5431E0A44914223
:102F300000D110BD11F8014B03F8014FF7E78842AB
:102F400010B501EB020307D8421E99420AD011F8CE
:102F5000014B02F8014FF8E78342F5D98118D21AE4
:102F6000D34200D110BD13F8014D01F8014DF7E730
:102F700038B50546002945D051F8043C0C1F002BFC
:102F8000B8BFE41800F0D2F81F4A1368104633B9EE
:102F9000636014602846BDE8384000F0C8B8A3421A
:102FA0000CD921686218934204BF1A685B68636099
:102FB00004BF521822600460ECE713465A680AB155
:102FC000A242FAD919685818A0420BD120680144CE
:102FD000581882421960DDD1106852685A60014465
:102FE0001960D7E702D90C232B60D3E7206821189A
:102FF0008A4204BF11685268626004BF09182160E8
:103000005C60C7E738BD00BFB000002070B5CD1CC4
:1030100025F0030508350C2D38BF0C25002D06467C
:1030200001DBA94203D90C233360002070BD00F0FE
:103030007DF8214A1468214691B9204C23681BB9B8
:10304000304600F063F820602946304600F05EF814
:10305000431C24D10C233360304600F068F8E4E7C9
:103060000B685B1B18D40B2B0FD90B60CD50CC1801
:10307000304600F05CF804F10B00231D20F007003F
:10308000C31AD3D05A42E250D0E78C424B6816BFE5
:10309000636013600C46EBE70C464968CCE7C41C40
:1030A00024F00304A04205D0211A304600F02EF887
:1030B0000130CFD02560DBE7B0000020B400002055
:1030C000F8B5074614460E4621B91146BDE8F8404A
:1030D000FFF79CBF22B9FFF74BFF25462846F8BDF6
:1030E00000F026F8A0420FD221463846FFF78EFFA7
:1030F00005460028F2D031462246FFF715FF31463B
:103100003846FFF735FFE9E73546E7E738B5064CBF
:103110000023054608462360FFF75CF8431C02D1F4
:10312000236803B12B6038BD04020020704770474C
:1031300051F8043C181F002BBCBF0B58C018704737
:10314000F8B500BFF8BC08BC9E467047F8B500BF94
:08315000F8BC08BC9E46704764
:10315800000000000000000001020304060708093F
:10316800000000000102030453504923202852455F
:103178005345545F43544C29203078253038782003
:103188000D0A0000535049232028425954455F54E2
:103198004553542920307825303878200D0A00000E
:1031A80053504923202848575F4346472920307801
:1031B80025303878200D0A00427566666572733AC4
:1031C800200D0A204F7574207B4C45443A203078F6
:1031D800253032787D200D0A20496E20207B313A37
:1031E800203078253034782C20323A203078253039
:1031F80034782C20333A203078253034782C203419
:103208003A203078253032782C20353A203078250D
:103218003032787D200D0A0057443A2025642C204E
:103228004F5045523A202564202853544154555351
:103238003A307825303878292054494D453A20309D
:1032480078253038782C204556454E54533A20304E
:1032580078253038780D0A00536F6D657468696E8B
:10326800672077726F6E672C206E6F20636F6D6DAD
:10327800756E69636174696F6E207769746820641C
:1032880065766963650D0A004552524F52232048FE
:10329800414C5F5350495F5472616E736D69740D90
:1032A8000A0D0A004552524F52232048414C5F53A1
:1032B80050495F526563656976650D0A0D0A00001D
:1032C800232D302B2000686C4C0065666745464707
:1032D800003031323334353637383941424344458A
:1032E80046003031323334353637383961626364F9
:0432F8006566000007
:0832FC0044CFFF7F0100000038
:04330400F5010008C7
:04330800D1010008E7
:10330C0001000000100000000024F400FFFFFFFF8C
:10331C00140000200000000000000000000000006D
:10332C000000000000000000000000000000000091
:10333C000000000000000000000000000000000081
:10334C000000000000000000000000000000000071
:10335C000000000000000000000000000000000061
:10336C000000000000000000000000000000000051
:04337C00000000004D
:040000050800287D4A
:00000001FF
